:0C0000000C942A000C9400000C940000EA
:10000C000C9400000C9400000C9400000C94000064
:10001C000C9400000C9400000C9400000C94000054
:10002C000C9400000C9400000C9400000C94000044
:10003C000C9400000C9400000C9400000C94000034
:10004C000C9400000C940000F894EE27ECBBF1E04B
:10005C00FBBFEBBFE5BF8DE0A2E0BB27ED938A951C
:10006C00E9F780E094E0A0E6ED930197E9F7EFE57E
:10007C00EDBFE4E0EEBFC0E6D1E00C944500E0E05B
:10008C00EABBE9BBEFEFE7BBE0E0E8BB7894C89BC9
:10009C0013C016D01BD020D025D02AD02FD034D0CE
:1000AC0039D03ED03DD036D02FD028D021D01AD048
:1000BC0013D00CD005D002C0E0E0E8BBE8CFFFCFF6
:1000CC00E1E0E8BBA2E3B0E00C949C00E2E0E8BB0A
:1000DC00A2E3B0E00C949C00E4E0E8BBA2E3B0E047
:1000EC000C949C00E8E0E8BBA2E3B0E00C949C000C
:1000FC00E0E1E8BBA2E3B0E00C949C00E0E2E8BBDA
:10010C00A2E3B0E00C949C00E0E4E8BBA2E3B0E016
:10011C000C949C00E0E8E8BBA2E3B0E00C949C00DB
:10012C00EFEFE8BBA2E3B0E00C949C00109639F022
:10013C0088EB9BE00197F1F7A8951197C9F7089503
:00000001FF
