:040000000C943C0020
:100004000C9400000C9400000C9400000C9400006C
:100014000C9400000C9469000C9400000C940000F3
:100024000C9400000C9400000C9400000C9400004C
:100034000C9400000C9400000C9400000C9400003C
:100044000C9400000C9400000C9400000C9400002C
:1000540000003F0006005B004F0066006D007D005D
:1000640007007F006F0002000400540013006001C9
:1000740056000000F894EE27ECBBF1E0FBBFEBBFA9
:10008400E5BF8DE0A2E0BB27ED938A95E9F780E018
:1000940094E0A0E6ED930197E9F7EAE6F0E08591B4
:1000A4009591009761F0A591B59105901590BF01C8
:1000B400F00105900D920197E1F7FB01F0CFEFE518
:1000C400EDBFE4E0EEBFC0E6D1E00C948200AA9359
:1000D400BA93EA93FA93EFB7EA93F201A0E6B1E098
:1000E400EE0FFF1FAE0FBF1FEC91E2BBF201319682
:1000F4002F01E991EFBFF991E991B991A99118956F
:10010400E0E0EABBEBBBE7BBE8BBE4BBE5BBEFEF7E
:10011400E1BBE0E0E2BBE3BFE2BFECBFEFBDEBE07D
:10012400EEBDE0E0EDBDECBDE7BDE6BDEFEFEBBD40
:10013400EABDE0E0E9BDE8BDE2BDE5BDE4BDE3BD87
:10014400E0E1E9BFE0E0E5BFE4BFEAB9E0E8E8B92F
:10015400E0E0E0BFE6B9EDB9E6BF7894FFCFFFCFAA
:00000001FF
