:0C0000000C9435000C9400000C940000DF
:10000C000C9400000C9400000C9400000C94000064
:10001C000C9400000C9400000C9400000C94000054
:10002C000C9400000C9400000C9400000C94000044
:10003C000C9400000C9400000C9400000C94000034
:10004C000C9400000C94000068656C6C6F77207742
:10005C006F72640080C00200600160000000F894C0
:10006C00EE27ECBBF1E0FBBFEBBFE5BF8DE0A2E000
:10007C00BB27ED938A95E9F780E094E0A0E6ED9339
:10008C000197E9F7E2E6F0E085919591009761F030
:10009C00A591B59105901590BF01F00105900D92B9
:1000AC000197E1F7FB01F0CFEFE5EDBFE4E0EEBF28
:1000BC00C0E6D1E00C946200E0E0EABBEBBBE7BB2E
:1000CC00E8BBE4BBE5BBE1BBE2BBE3BFE2BFECBF1B
:1000DC00EFBDEEBDEDBDECBDE7BDE6BDEBBDEABDD4
:1000EC00E9BDE8BDE2BDE5BDE4BDE3BDE9BFE5BFEB
:1000FC00E4BFEAB9E0E8E8B9E0E0E0BFE6B9EDB9A1
:10010C00E6BFA8E075D0A4E5B0E05FD0FFCFFFCF8D
:10011C00AA93E881E07111F0A99A01C0A998E8812D
:10012C00E07211F0AD9A01C0AD98E881E07411F065
:10013C00AE9A01C0AE98E881E07811F0AF9A01C098
:10014C00AF9882E08A95F1F7AA9A82E08A95F1F746
:10015C00AA9882E08A95F1F774C0AA93A881D8DF97
:10016C00E881E295E883A881D3DF81E18A95F1F7F4
:10017C0068C0AA93E881F0E0E05AFE4FE081A981C3
:10018C00AE0FEBDF5980488022960895A2E05BD039
:10019C00ACE0E3DFA1E057D0E0E04E2E5E2E0895F8
:1001AC00AA93A881AA3011F0571448F0E0E0EA9322
:1001BC004394A42DDEDFA881AA3009F442C05394E5
:1001CC00AC9AA881CADFAC983CC0BA93AA931A9394
:1001DC00E981FA813196E983FA833197E4911E2FF4
:1001EC00E03019F0A12FDCDFF3CF188123960895AE
:1001FC00AA93A19AA59AA69AA79AA29AA49AA39A04
:10020C00AA98AC98AB987880E881E058E0936201AA
:10021C00E881E054E0936301A4E1B0E00E94340172
:10022C0017D016D015D0A0E273DF81E28A95F1F7D2
:10023C00A8E293DFA4E091DFA5E88FDFA6E08DDFD5
:10024C00A5DF2196089589DFA3E0B0E00C9434017A
:10025C00A0E35EDF81E28A95F1F70895109639F0FC
:10026C008AEF90E00197F1F7A8951197C9F70895D7
:00000001FF
