:0C0000000C9438000C9400000C940000DC
:10000C000C9400000C9400000C9400000C94000064
:10001C000C9400000C9400000C9465000C940000EF
:10002C000C9400000C9400000C9400000C94000044
:10003C000C9400000C9400000C9400000C94000034
:10004C000C9400000C94000000000000000009005B
:10005C000A000600050006000400540007006001B9
:10006C005A000000F894EE27ECBBF1E0FBBFEBBFAD
:10007C00E5BF8DE0A2E0BB27ED938A95E9F780E020
:10008C0094E0A0E6ED930197E9F7E2E6F0E08591C4
:10009C009591009761F0A591B59105901590BF01D0
:1000AC00F00105900D920197E1F7FB01F0CFEFE520
:1000BC00EDBFE4E0EEBFC0E6D1E00C94B7000A92CD
:1000CC001A92FA926A937A938A939A93AA93BA930E
:1000DC00EA93FA93EFB7EA9300240814090449F061
:1000EC00D401E2E0F0E00E941801E130A0E0FA0750
:1000FC0009F00FC068D0F30131963F016ED0E0E0FB
:10010C00EBBB6BD0E4E0F0E0E615F70511F46624E8
:10011C00772400240814090439F0D401E2E0F0E05B
:10012C000E941801309709F00EC04DD056D0E0E077
:10013C00EBBB53D0062C072819F4E4E0F0E03F01A8
:10014C00F30131973F01E991EFBFF991E991B99131
:10015C00A9919991899179916991F9901990099046
:10016C001895EFE0EABBE0E0EBBBE7BBE8BBE4BB18
:10017C00E5BBE1BBE2BBE5E0E3BFE0E0E2BFECBF27
:10018C00EFBDEEBDEDBDECBDE7BDE6BDEBBDEABD23
:10019C00E9BDE8BDE2BDE5BDE4BDE3BDE1E0E9BF1D
:1001AC00E0E0E5BFE4BFEAB9E0E8E8B9E0E0E0BFD1
:1001BC00E6B9EDB9E6BF78949A9903C0F40131968B
:1001CC004F01FACFFFCFF301A0E6B1E0EE0FFF1F16
:1001DC00AE0FBF1FEC91EBBB0895A5E0B0E00C9403
:1001EC00F700109639F088EB9BE00197F1F7A89592
:1001FC001197C9F70895F195E195F0400895002401
:10020C00112490E1AA0FBB1F001C111C0E1A1F0A0F
:10021C0018F40E0E1F1E01C0A1609A9599F7FD01EE
:10022C00D0010895E894B7FF04C0A095B09511963D
:10023C006894F7FDE0DFE3DFFD010EF4DCDF0895E9
:00000001FF
