:0E0000000C9437000C9400000C9400000C943B
:10000E0000000C9400000C9400000C9400000C9462
:10001E0000000C9400000C9464000C9400000C94EE
:10002E0000000C9400000C9400000C9400000C9442
:10003E0000000C9400000C9400000C9400000C9432
:10004E0000000C9400000000000009000A000600E9
:10005E000500040004005400070060015800000071
:10006E00F894EE27ECBBF1E0FBBFEBBFE5BF8DE0F4
:10007E00A2E0BB27ED938A95E9F780E094E0A0E635
:10008E00ED930197E9F7E0E6F0E085919591009701
:10009E0061F0A591B59105901590BF01F001059005
:1000AE000D920197E1F7FB01F0CFEFE5EDBFE4E034
:1000BE00EEBFC0E6D1E00C949B000A921A92FA921F
:1000CE006A937A938A939A93AA93BA93EA93FA933A
:1000DE00EFB7EA93062C0728C9F0F201A0E6B1E0CB
:1000EE00EE0FFF1FAE0FBF1FEC91EBBBF20131966F
:1000FE002F01A5E0B0E00E94CD00E0E0EBBBE4E014
:10010E00F0E0E415F50511F444245524E991EFBF10
:10011E00F991E991B991A991999189917991699101
:10012E00F990199009901895EFE0EABBE0E0EBBB6F
:10013E00E7BBE8BBE4BBE5BBE1BBE2BBE5E0E3BF8D
:10014E00E0E0E2BFECBFEFBDEEBDEDBDECBDE7BD47
:10015E00E6BDEBBDEABDE9BDE8BDE2BDE5BDE4BD72
:10016E00E3BDE1E0E9BFE0E0E5BFE4BFEAB9E0E806
:10017E00E8B9E0E0E0BFE6B9EDB9E6BF78949A9948
:10018E0003C0F30131963F01FACFFFCF109639F03D
:10019E0088EB9BE00197F1F7A8951197C9F70895A1
:00000001FF
