:100000000C9440000C9400000C9400000C94000030
:100010000C9400000C9479000C9400000C940000E7
:100020000C946D000C9400000C9400000C940000E3
:100030000C9400000C9400000C9400000C94000040
:100040000C9400000C9400000C9400000C94000030
:100050000C9400001027E80364000A00010000105F
:1000600000011000010000000000256420487A0013
:1000700080C00400040066000200720170000000ED
:10008000F894EE27ECBBF1E0FBBFEBBFE5BF8DE0E2
:10009000A2E0BB27ED938A95E9F780E094E0A0E623
:1000A000ED930197E9F7E2E7F0E0859195910097EC
:1000B00061F0A591B59105901590BF01F0010590F3
:1000C0000D920197E1F7FB01F0CFEFE5EDBFE4E022
:1000D000EEBFC0E6D1E00C94DF00EA93FA93EFB7ED
:1000E000EA93F20131962F01E991EFBFF991E9917D
:1000F00018950A921A92FA926A937A938A939A932B
:10010000AA93BA93EA93FA93EFB7EA93E7B5FE2F6F
:10011000E0E0DF01E6B5F0E0AE0FBF1FF401E0E084
:10012000F0E0EA0FFB1F3F014201662777270E949C
:10013000E203ADEBB7E386E895E30E941004AAE67C
:10014000B1E00E94A9030E949C04E0916A01F09131
:100150006B0160916C0170916D01A1E0B0E080E0F5
:1001600090E00E947304E0936E01F0936F0160933E
:10017000700170937101E0E6F1E0FA93EA93EAE628
:10018000F0E0FA93EA93E0916E01F0916F016091D3
:100190007001709171010E94A50484E00E94EC023C
:1001A0002896E991EFBFF991E991B991A9919991B7
:1001B000899179916991F990199009901895E0E0E9
:1001C000EABBEBBBE7BBE8BBE4BBE5BBE1BBE2BB27
:1001D000E3BFE2BFECBFEFBDE9E1EEBDE0E0EDBDA6
:1001E000ECBDE7BDE6BDEBBDEABDE9BDE8BDE2BDE6
:1001F000E5BDE4BDE3BDE4E2E9BFE0E0E5BFE4BFA7
:10020000EAB9E0E8E8B9E0E0E0BFE6B9EDB9E6BF99
:10021000A0E140D07894FFCFFFCFAA93E881E071AE
:1002200011F0AC9A01C0AC98E881E07211F0DD9A4F
:1002300001C0DD98E881E07411F0AE9A01C0AE987B
:10024000E881E07811F0AF9A01C0AF9882E08A951A
:10025000F1F7AA9A82E08A95F1F7AA9882E08A9546
:10026000F1F744C0AA93A881D8DFE881E295E8833A
:10027000A881D3DF81E18A95F1F738C0A2E00E941E
:100280003903ACE0EFDFA1E00E943903E0E0AE2EDD
:10029000BE2E0895AA93A49AD59AA69AA79AA29A2E
:1002A000A09AA19AAA98A898A998D880E881E0581D
:1002B000E0937401E881E054E0937501A4E1B0E0BB
:1002C0000E9472030E943F030E943F030E943F036B
:1002D000A0E2A3DF81E28A95F1F7A8E2C3DFA4E000
:1002E000C1DFA5E8BFDFA6E0BDDFC8DF2196089526
:1002F000BA93AA931A930A93AA81BB8112960E9479
:100300009804309759F1AA81BB8114960E949804F1
:100310008F01309761F00230E0E01E0798F0F8019D
:1003200031978F01AA81BB811496ED93FC93AA812A
:10033000BB811296ED91FD913196FE93EE9331972C
:10034000AC81A083AA81BB810E949804FF232AF07C
:10035000ED91FD913196FE93EE9306C0AA81BB818B
:10036000EFEFFFEFED93FC93198108812596089537
:10037000BA93AA9326970E94AA0410E0AC85BD8583
:10038000E0E0F0E0ED93FC93EA89FB893196EA8B9B
:10039000FB8B3197E4912E2FE03009F415C1E12F4A
:1003A000E03039F4253211F411E002C00E94460316
:1003B0000AC1E130A9F4253219F40E94460302C1B2
:1003C00012E040E000E02D3211F401E0FCC02B32DD
:1003D00011F44BE2F8C0203211F440E2F4C002C044
:1003E000E23039F450E013E0203311F40068EBC040
:1003F00003C0E33009F0E7C0203310F02A3308F0DF
:1004000007C0AAE05A9F502DE22FE0535E0FDBC0D9
:10041000E22FE33649F40E944D03E889F989A4816B
:10042000AA930E945303CEC0E33741F40E944D03C8
:100430000E9459030E9420031E2F0AC0E03761F476
:100440000E944D030E9459030E942C031E2F086036
:1004500002600F7730E034C0E43611F0E93611F471
:10046000046002C0E53731F4E4E5F0E0EE83FF8399
:1004700015E00CC0E83511F4086003C0E83709F056
:10048000A1C0EEE5F0E0EE83FF8314E002FF14C0AC
:100490000E944D030E946303AB85AA233AF4EA85C8
:1004A000FB850E946204EA87FB874DE2403011F031
:1004B0001F5F01C00B7F04C00E944D030E946303B5
:1004C00000FD11C0151778F407FF08C002FF04C033
:1004D0000B7F242F115001C020E301C020E20E94B5
:1004E00046035150EFCF312F01FF17C03030A1F03C
:1004F00003FF06C0EE81FF812591EE83FF8305C0D7
:10050000AE81BF812D91AE83BF830E9446035030E0
:1005100009F051503150EACF4BC020E3EE81FF810A
:100520000E94A104E887F987EE81FF813296EE836D
:10053000FF83E885F985AA85BB85AE17BF0750F014
:100540002F5FA885B985EA85FB85EA1BFB0BEA8747
:10055000FB87EFCF2A3328F003FF02C0295F01C0D9
:10056000295D04FD1AC0213320F4A885B9851197AF
:1005700009F409C0531710F000FF01C013C020E2B6
:1005800007FF0BC020E3006102FF07C00B7F4A9307
:100590000E945303503009F051500E9446035030DE
:1005A00009F051503150A885B985129708F0B5CFA0
:1005B00000FF08C0503031F05150E0E2EA930E9451
:1005C0005303F8CF10E0E0CEAC85BD850E949804BF
:1005D0000E94B10464960895FF92F82E26970E9417
:1005E000AC040E946B03309719F4EFEFFFEF23C0C8
:1005F000DE0116960E945E048D010E946B03EE835D
:10060000FF83E0E0E887E987DE011A960E945E0436
:100610000E949804FA93EA931A930A93E8E7F1E0A8
:10062000FA93EA93DE011A96A3DE9F01AE81BF81A1
:10063000E0E0EC93F9010E94B3042A96FF9008953C
:10064000BA93AA93A991B991EE27FF276D916623DA
:1006500011F03196FBCF0895BA93AA93AA27BB272E
:10066000E991F9910590002011F01196FBCFFD0161
:1006700008950E943201A3E0B0E00C947203A0E35D
:100680000E940D0181E28A95F1F708952A93AD85C4
:10069000BE85EF85F88909950895E889F989349729
:1006A000E88BF98B0895AD85BE85EF85F8890995AE
:1006B0000895A889B98914960E949804EE83FF834F
:1006C000AE81BF810895A889B98914960E949804C3
:1006D000EA87FB870895DE011C960E945E040E9453
:1006E00098040895109639F08AEF90E00197F1F799
:1006F000A8951197C9F70895552342F4503811F47D
:10070000E0FF04C03196691F791F6BF050E857274E
:1007100011F45F9373C05F3F31F0660F000C579583
:100720006795752F08955F9300200AF073C06CC021
:1007300050E8192E1522880F991F9527550F879578
:1007400050E8072E0522660F771F7527550F67950E
:100750000895689401C0E8945F93F2DF703818F050
:100760007F3F08F44BC056E1571BAAF4519558300F
:100770000EF4593030F0EFEFFFEF6FEF7FE777F9CE
:100780001AC077275523B9F0EE0FFF1F661F771F9A
:100790005A95D1F710C07727583028F0EF2FF62F51
:1007A000672F5850F9CF552331F076956795F79517
:1007B000E7955A95D1F700200AF488D05F91089503
:1007C000689401C0E894309760407040B1F0002414
:1007D00026F0772312F4009479D0172E7EE11120B1
:1007E00032F07A95EE0FFF1F661F111CF9CFEF2F25
:1007F000F62F612D5F938ADF5F910895EE27FF2723
:10080000662777275F910895EFEFFFEF6FE77FEFA0
:100810005F910895EFEFFFEF6FE77FE75F91089536
:100820005F9386DF703851F3903841F301240894C8
:10083000791F23F41CF300203AF3ECCF0F921F939F
:100840002F933F934F93112722279927689FA00149
:100850008F9F302D410D591F6B9F300D411D591F2A
:100860008E9F27D0BF9F25D06A9F23D0BE9F1DD0CB
:10087000AF9F1BD0AE9F110D291F391F491F591F54
:10088000E32FF42F652F522F4F913F912F911F91FE
:100890000F9066232AF0550FEE1FFF1F661F02C040
:1008A00073954BF229DF5F910895100D211D391FBB
:1008B00002C0200D311D491F591F08950024AF0D9E
:1008C000B01D0895F195E195F0400895F09560957B
:1008D0007095E195FF4F6F4F7F4F08956F2F660F13
:1008E000660B762F08953F934F935F930024112456
:1008F0004427552730E2AA0FBB1F881F991F001CF1
:10090000111C441F551F0E1A1F0A460B570B28F4C3
:100910000E0E1F1E461F571F01C0A1603A9559F7C2
:10092000FD01BC01D001CA015F914F913F91089533
:10093000ED91FC9111970895ED93FD936D937C9348
:1009400008950590F491E02D08957A936A93FA93AF
:10095000EA9308955A934A933A932A931A930A93DF
:1009600008955D814C813B812A8119810881089518
:00000001FF
