:0C0000000C943F000C9400000C940000D5
:10000C000C9400000C9400000C9400000C94000064
:10001C000C9400000C94A0000C946C000C94000048
:10002C000C9400000C9400000C9400000C94000044
:10003C000C9400000C9400000C9400000C94000034
:10004C000C9400000C94000000000000030003005E
:10005C003F0006005B004F0066006D007D0007004E
:10006C007F006F00080006005400130060015C0064
:10007C000000F894EE27ECBBF1E0FBBFEBBFE5BF53
:10008C008DE0A2E0BB27ED938A95E9F780E094E040
:10009C00A0E6ED930197E9F7E0E7F0E08591959103
:1000AC00009761F0A591B59105901590BF01F001F5
:1000BC0005900D920197E1F7FB01F0CFEFE5EDBF55
:1000CC00E4E0EEBFC0E6D1E00C94E1008FD0F30188
:1000DC0031963F01E2E0F0E0E615F70541F5E5B3B6
:1000EC00AFEFEA274E2E5524EFEFE425E5BBF601E2
:1000FC0085D0A0E6B1E08BD0EC91E2BB559447944F
:10010C00042C052819F4E8E0F0E02F01EFEF4E265F
:10011C0045BA4E2666247724F60131976F01EFEF2E
:10012C00FFEFEC15FD0519F4E3E0F0E06F01E0E002
:10013C00E2BF39C05BD0F40131964F01E4EFF1E03E
:10014C00E815F90561F5AAE7B1E0ED91FD9131965D
:10015C00FE93EE930024A014B004E4F0F5014ED00D
:10016C00EA30A0E0FA0791F4F5013197A4E7B1E089
:10017C004ED0ED91FD913196FE93EE93F501A4E7EF
:10018C00B1E045D0E0E0F0E0ED93FC93F501319760
:10019C005F01E0CFE3E0F0E05F0188249924EFEF0A
:1001AC00EDBDE0EFECBDE991EFBFF991E991B991AB
:1001BC00A99109901895EFEFE1BBE0E0E2BBEFEFFE
:1001CC00E4BBEFEEE5BBE5E0E9BFE3BFE0E0E2BF97
:1001DC00ECBFEFBDE5E0EEBDEFEFEDBDE0EFECBD4C
:1001EC00E0E0E5BFE4BF7894FFCFFFCF0A92AA937B
:1001FC00BA93EA93FA93EFB7EA930895A4E7B1E0C0
:10020C00EE0FFF1FAE0FBF1F0E9412010895EE0FDD
:10021C00FF1FAE0FBF1F0895ED91FC91119708952C
:00000001FF
