:0A0000000C9444000C9400000C94D2
:10000A0000000C9400000C9400000C9400000C9466
:10001A0071000C9400000C9400000C9400000C94E5
:10002A0000000C9400000C9400000C9400000C9446
:10003A0000000C9400000C9400000C9400000C9436
:10004A0000000C9400000C940000000000006162A3
:10005A00636465666768696A6B6C6D6E6F707172EE
:10006A00737475767778797A80C004000400540036
:10007A001A006001580002007B0172000000F89427
:10008A00EE27ECBBF1E0FBBFEBBFE5BF8DE0A2E0E2
:10009A00BB27ED938A95E9F780E094E0A0E6ED931B
:1000AA000197E9F7E4E7F0E085919591009761F00F
:1000BA00A591B59105901590BF01F00105900D929B
:1000CA000197E1F7FB01F0CFEFE5EDBFE4E0EEBF0A
:1000DA00C0E6D1E00C9498000A921A92FA926A93B6
:1000EA007A938A939A93AA93BA93EA93FA93EFB775
:1000FA00EA934A92A62D81D0A0E6B1E0A40DB51DDF
:10010A00AC9192D0F20131962F01E991EFBFF991AA
:10011A00E991B991A9919991899179916991F99006
:10012A00199009901895EFE0F0E0E415F50519F437
:10013A00E1E0F0E03F01E0E0EABBEBBBE7BBE8BB94
:10014A00E4BBE5BBE1BBE2BBE3BFE2BFECBFEFBD93
:10015A00EBE0EEBDE0E0EDBDECBDE7BDE6BDE5E1FF
:10016A00EBBDE5E5EABDE0E0E9BDE8BDE2BDE5BD20
:10017A00E4BDE3BDE0E1E9BFE0E0E5BFE4BFEAB921
:10018A00E0E8E8B9E0E0E0BFE6B9EDB9E6BFA0E132
:10019A005FD07894FFCFFFCFAA93E881E07111F086
:1001AA00AC9A01C0AC98E881E07211F0AB9A01C038
:1001BA00AB98E881E07411F0AA9A01C0AA98E88184
:1001CA00E07811F0A99A01C0A99882E08A95F1F71E
:1001DA00AD9A82E08A95F1F7AD9882E08A95F1F7B7
:1001EA0060C0AA93A881D8DFE881E295E883A88154
:1001FA00D3DF81E18A95F1F754C0AA93E881F0E050
:10020A00E558FE4FE081A981AE0FEBDF9980888027
:10021A0022960895A2E047D0ACE0E3DFA1E043D004
:10022A00E0E08E2E9E2E0895AA93A881AA3011F09E
:10023A009B1440F0E0E0EA938394A82DDEDFA881C6
:10024A00AA3079F19394AF9AA881CBDFAF9829C0ED
:10025A00AA93A49AA39AA29AA19AA59AA79AA69AA5
:10026A00AD98AF98AE98B880E881E058E0937D01E8
:10027A00E881E054E0937E01A4E1B0E00E946301CA
:10028A0017D016D015D0A0E287DF81E28A95F1F760
:10029A00A8E2A7DFA4E0A5DFA5E8A3DFA6E0A1DF27
:1002AA00B9DF219608959DDFA3E0B0E00C946301C5
:1002BA00A0E372DF81E28A95F1F70895109639F08A
:1002CA008AEF90E00197F1F7A8951197C9F7089579
:00000001FF
