:020000000C945E
:1000020045000C9400000C9400000C9400000C9429
:1000120000000C9400000C948E000C9400000C94D0
:1000220000000C9400000C9400000C9400000C944E
:1000320000000C9400000C9400000C9400000C943E
:1000420000000C9400000C9400000C9472000C94BC
:10005200000000000000000000003F0006005B00FE
:100062004F0066006D007D0007007F006F000E00EC
:100072000C000800080006005400130060015C0038
:100082000500740170000000F894EE27ECBBF1E06B
:10009200FBBFEBBFE5BF8DE0A2E0BB27ED938A95E6
:1000A200E9F780E094E0A0E6ED930197E9F7E6E74F
:1000B200F0E085919591009761F0A591B591059039
:1000C2001590BF01F00105900D920197E1F7FB0138
:1000D200F0CFEFE5EDBFE4E0EEBFC0E6D1E00C9477
:1000E200F700AA93BA93EA93FA93EFB7EA93E091EF
:1000F2007C01F0917D01A4E7B1E0AED0E5BBACE7B5
:10010200B1E0ED91FD913196FE93EE93E991EFBF4F
:10011200F991E991B991A99118950A921A929A9333
:10012200AA93BA93EA93FA93EFB7EA934424552435
:10013200F20198D0E2BBD301EAE0F0E00E945B0159
:10014200309721F492D011F097D009F407C0F4014E
:1001520031964F013197F40185D0E2BB86D011F47C
:100162008BD009F407C0F50131965F013197F50193
:1001720079D0E2BB81D039F4F60131966F01319723
:10018200F60170D0E2BBF20131962F01EAE0F0E015
:10019200E415F50511F444245524EAE0F0E0E415F1
:1001A200F50511F444245524EAE0F0E0E815F905D8
:1001B20011F488249924EAE0F0E0EA15FB0511F431
:1001C200AA24BB24EAE0F0E0EC15FD0511F4CC24EE
:1001D200DD24F30131963F01E991EFBFF991E991F5
:1001E200B991A9919991199009901895E0E0EABB0B
:1001F200EBBBE7BBE8BBEFE0E4BBE0E0E5BBEFEF66
:10020200E1BBE0E0E2BBEFE0E3BFE0E0E2BFEFEF43
:10021200ECBFE0E0EFBDEBE0EEBDE0E0EDBDECBD3C
:10022200E7BDE6BDEFEFEBBDEABDE0E0E9BDE8BD4D
:10023200E2BDE5BDE4BDE3BDE2E1E9BFE0E0E5BF6B
:10024200E4BFEAB9E0E8E8B9E0E0E0BFE6B9EDB959
:10025200E6BF7894FFCFFFCFEE0FFF1FAE0FBF1F99
:10026200EC910895A0E6B1E0F7CFD301E4E6F0E027
:100272000E945B0130970895D301E8EEF3E00E94FB
:100282005B0130970895F195E195F04008950024BF
:10029200112490E1AA0FBB1F001C111C0E1A1F0A89
:1002A20018F40E0E1F1E01C0A1609A9599F7FD0168
:1002B200D0010895E894B7FF04C0A095B0951196B7
:1002C2006894F7FDE0DFE3DFFD010EF4DCDF089563
:00000001FF
